{
  "contractName": "Auction",
  "abi": [
    {
      "constant": true,
      "inputs": [],
      "name": "endTime",
      "outputs": [
        {
          "name": "",
          "type": "uint256"
        }
      ],
      "payable": false,
      "stateMutability": "view",
      "type": "function"
    },
    {
      "constant": true,
      "inputs": [
        {
          "name": "",
          "type": "uint256"
        }
      ],
      "name": "participants",
      "outputs": [
        {
          "name": "bid_amount",
          "type": "uint256"
        }
      ],
      "payable": false,
      "stateMutability": "view",
      "type": "function"
    },
    {
      "constant": true,
      "inputs": [],
      "name": "highestBidder",
      "outputs": [
        {
          "name": "",
          "type": "address"
        }
      ],
      "payable": false,
      "stateMutability": "view",
      "type": "function"
    },
    {
      "constant": true,
      "inputs": [],
      "name": "currentPrice",
      "outputs": [
        {
          "name": "",
          "type": "uint256"
        }
      ],
      "payable": false,
      "stateMutability": "view",
      "type": "function"
    },
    {
      "constant": true,
      "inputs": [],
      "name": "isEnded",
      "outputs": [
        {
          "name": "",
          "type": "bool"
        }
      ],
      "payable": false,
      "stateMutability": "view",
      "type": "function"
    },
    {
      "constant": true,
      "inputs": [],
      "name": "contractOwner",
      "outputs": [
        {
          "name": "",
          "type": "address"
        }
      ],
      "payable": false,
      "stateMutability": "view",
      "type": "function"
    },
    {
      "constant": true,
      "inputs": [],
      "name": "step",
      "outputs": [
        {
          "name": "",
          "type": "uint8"
        }
      ],
      "payable": false,
      "stateMutability": "view",
      "type": "function"
    },
    {
      "inputs": [
        {
          "name": "_step",
          "type": "uint8"
        },
        {
          "name": "_minPrice",
          "type": "uint256"
        },
        {
          "name": "_endTime",
          "type": "uint256"
        }
      ],
      "payable": false,
      "stateMutability": "nonpayable",
      "type": "constructor"
    },
    {
      "anonymous": false,
      "inputs": [
        {
          "indexed": false,
          "name": "currentHighestBidder",
          "type": "address"
        },
        {
          "indexed": false,
          "name": "currentPrice",
          "type": "uint256"
        }
      ],
      "name": "HighestBidIncreased",
      "type": "event"
    },
    {
      "anonymous": false,
      "inputs": [
        {
          "indexed": false,
          "name": "highestBidder",
          "type": "address"
        },
        {
          "indexed": false,
          "name": "finalPrice",
          "type": "uint256"
        }
      ],
      "name": "AuctionEnded",
      "type": "event"
    },
    {
      "constant": false,
      "inputs": [],
      "name": "Bid",
      "outputs": [],
      "payable": true,
      "stateMutability": "payable",
      "type": "function"
    },
    {
      "constant": true,
      "inputs": [],
      "name": "showCurrentPrice",
      "outputs": [
        {
          "name": "_currentPrice",
          "type": "uint256"
        },
        {
          "name": "_highestBidder",
          "type": "address"
        }
      ],
      "payable": false,
      "stateMutability": "view",
      "type": "function"
    },
    {
      "constant": false,
      "inputs": [],
      "name": "withdraw",
      "outputs": [
        {
          "name": "",
          "type": "bool"
        }
      ],
      "payable": false,
      "stateMutability": "nonpayable",
      "type": "function"
    },
    {
      "constant": false,
      "inputs": [],
      "name": "end",
      "outputs": [],
      "payable": false,
      "stateMutability": "nonpayable",
      "type": "function"
    }
  ],
  "bytecode": "0x6060604052341561000f57600080fd5b60405160608061096183398101604052808051906020019091908051906020019091908051906020019091905050610e10810242016001819055508160028190555033600360006101000a81548173ffffffffffffffffffffffffffffffffffffffff021916908373ffffffffffffffffffffffffffffffffffffffff160217905550826000806101000a81548160ff021916908360ff1602179055505050506108a3806100be6000396000f3006060604052600436106100af576000357c0100000000000000000000000000000000000000000000000000000000900463ffffffff1680633197cbb6146100b457806335c1d349146100dd5780633ccfd60b146101145780636e6452cb1461014157806391f901571461014b5780639d1b464a146101a0578063a4fd6f56146101c9578063c628f441146101f6578063ce606ee014610252578063e25fe175146102a7578063efbe1c1c146102d6575b600080fd5b34156100bf57600080fd5b6100c76102eb565b6040518082815260200191505060405180910390f35b34156100e857600080fd5b6100fe60048080359060200190919050506102f1565b6040518082815260200191505060405180910390f35b341561011f57600080fd5b61012761031b565b604051808215151515815260200191505060405180910390f35b6101496104ed565b005b341561015657600080fd5b61015e610633565b604051808273ffffffffffffffffffffffffffffffffffffffff1673ffffffffffffffffffffffffffffffffffffffff16815260200191505060405180910390f35b34156101ab57600080fd5b6101b3610659565b6040518082815260200191505060405180910390f35b34156101d457600080fd5b6101dc61065f565b604051808215151515815260200191505060405180910390f35b341561020157600080fd5b610209610672565b604051808381526020018273ffffffffffffffffffffffffffffffffffffffff1673ffffffffffffffffffffffffffffffffffffffff1681526020019250505060405180910390f35b341561025d57600080fd5b6102656106a3565b604051808273ffffffffffffffffffffffffffffffffffffffff1673ffffffffffffffffffffffffffffffffffffffff16815260200191505060405180910390f35b34156102b257600080fd5b6102ba6106c9565b604051808260ff1660ff16815260200191505060405180910390f35b34156102e157600080fd5b6102e96106db565b005b60015481565b60068181548110151561030057fe5b90600052602060002090016000915090508060000154905081565b600080600460009054906101000a900473ffffffffffffffffffffffffffffffffffffffff1673ffffffffffffffffffffffffffffffffffffffff163373ffffffffffffffffffffffffffffffffffffffff161415151561037b57600080fd5b6000600560003373ffffffffffffffffffffffffffffffffffffffff1673ffffffffffffffffffffffffffffffffffffffff168152602001908152602001600020600001541115156103cc57600080fd5b600560003373ffffffffffffffffffffffffffffffffffffffff1673ffffffffffffffffffffffffffffffffffffffff1681526020019081526020016000206000015490506000600560003373ffffffffffffffffffffffffffffffffffffffff1673ffffffffffffffffffffffffffffffffffffffff168152602001908152602001600020600001819055503373ffffffffffffffffffffffffffffffffffffffff166108fc829081150290604051600060405180830381858888f1935050505015156104e45780600560003373ffffffffffffffffffffffffffffffffffffffff1673ffffffffffffffffffffffffffffffffffffffff16815260200190815260200160002060000181905550600091506104e9565b600191505b5090565b600254341180156104ff575060013410155b151561050a57600080fd5b34600560003373ffffffffffffffffffffffffffffffffffffffff1673ffffffffffffffffffffffffffffffffffffffff168152602001908152602001600020600001600082825401925050819055503460028190555033600460006101000a81548173ffffffffffffffffffffffffffffffffffffffff021916908373ffffffffffffffffffffffffffffffffffffffff1602179055507ff4757a49b326036464bec6fe419a4ae38c8a02ce3e68bf0809674f6aab8ad300600460009054906101000a900473ffffffffffffffffffffffffffffffffffffffff16600254604051808373ffffffffffffffffffffffffffffffffffffffff1673ffffffffffffffffffffffffffffffffffffffff1681526020018281526020019250505060405180910390a1565b600460009054906101000a900473ffffffffffffffffffffffffffffffffffffffff1681565b60025481565b600460149054906101000a900460ff1681565b6000806002549150600460009054906101000a900473ffffffffffffffffffffffffffffffffffffffff1690509091565b600360009054906101000a900473ffffffffffffffffffffffffffffffffffffffff1681565b6000809054906101000a900460ff1681565b600360009054906101000a900473ffffffffffffffffffffffffffffffffffffffff1673ffffffffffffffffffffffffffffffffffffffff163373ffffffffffffffffffffffffffffffffffffffff1614151561073757600080fd5b600154421015801561075c575060001515600460149054906101000a900460ff161515145b151561076757600080fd5b6001600460146101000a81548160ff0219169083151502179055507fdaec4582d5d9595688c8c98545fdd1c696d41c6aeaeb636737e84ed2f5c00eda600460009054906101000a900473ffffffffffffffffffffffffffffffffffffffff16600254604051808373ffffffffffffffffffffffffffffffffffffffff1673ffffffffffffffffffffffffffffffffffffffff1681526020018281526020019250505060405180910390a1600360009054906101000a900473ffffffffffffffffffffffffffffffffffffffff1673ffffffffffffffffffffffffffffffffffffffff166108fc6002549081150290604051600060405180830381858888f19350505050151561087557600080fd5b5600a165627a7a72305820c85f46e325c59e9de96138a3314e5124a9ec98f6df7f97dd49af611a79587a5b0029",
  "source": "pragma solidity ^0.4.16;\n\ncontract Auction {\n\n\tuint8 public step;\n\tuint256 public endTime;\n\tuint256 public currentPrice;\n\taddress public contractOwner;\n\taddress public highestBidder;\n\tbool public isEnded;\n\n\tevent HighestBidIncreased(address currentHighestBidder, uint currentPrice);\n  \tevent AuctionEnded(address highestBidder, uint finalPrice);\n\n\n\tfunction Auction(uint8 _step, uint _minPrice, uint _endTime) public {\n\t\tendTime = now + _endTime * 1 hours;\n\t\tcurrentPrice = _minPrice;\n\t\tcontractOwner = msg.sender;\n\t\tstep = _step;\n\t}\n\n\tstruct Participant {\n\t\tuint bid_amount;\n\t}\n\n\tmapping (address => Participant) bids;\n\n\tParticipant[] public participants;\n\n\tfunction Bid() public payable {\n\n\t\trequire (msg.value > currentPrice && msg.value >= 1);\n\t\tbids[msg.sender].bid_amount += msg.value;\n\t\tcurrentPrice = msg.value;\n\t\thighestBidder = msg.sender;\t\t\n\t\temit HighestBidIncreased(highestBidder, currentPrice);\n\t}\n\n\tfunction showCurrentPrice() public constant returns (uint256 _currentPrice, address _highestBidder) {\n\t\t\t\t_currentPrice = currentPrice;\n\t\t\t\t_highestBidder = highestBidder;\n\t}\n\n\tfunction withdraw() public returns (bool){\n\t\trequire (msg.sender != highestBidder); // prevent who is the highestBidder withdraw\n\t\trequire (bids[msg.sender].bid_amount > 0);\n\n\t\tuint withdraw_amount = bids[msg.sender].bid_amount;\n\t\tbids[msg.sender].bid_amount = 0;\n\t\tif (!msg.sender.send(withdraw_amount)){\n\t\t\tbids[msg.sender].bid_amount = withdraw_amount;\n\t\t\treturn false;\n\t\t}\n\t\treturn true;\n\t}\n\n\tfunction end() public {\n\t\trequire(msg.sender == contractOwner);\n\t\trequire(now >= endTime && isEnded == false);\n\t\tisEnded = true;\n\t\temit AuctionEnded(highestBidder, currentPrice);\n\t\tcontractOwner.transfer(currentPrice);\n\t}\n}",
  "sourcePath": "/Users/letoan/Auction/public/contracts/contracts/Auction.sol",
  "compiler": {
    "name": "solc",
    "version": "0.4.21+commit.dfe3193c.Emscripten.clang"
  },
  "schemaVersion": "2.0.0",
  "updatedAt": "2018-04-15T09:10:53.490Z"
}